:020000040800F2
:10000000000002208D1900080118000803180008DC
:10001000051800080718000809180008000000006B
:100020000000000000000000000000000B180008A5
:100030000D180008000000000F1800081118000833
:10004000DD190008DD190008DD190008DD190008B8
:10005000DD190008DD190008DD190008DD190008A8
:10006000DD190008DD190008DD190008DD19000898
:10007000DD190008DD190008DD190008DD19000888
:10008000611800086D180008DD190008DD19000866
:10009000DD190008DD190008DD190008DD19000868
:1000A000DD190008DD190008DD190008DD19000858
:1000B000DD190008DD190008DD190008DD19000848
:1000C000DD190008DD190008DD190008DD19000838
:1000D000DD190008DD190008DD190008DD19000828
:1000E000DD190008DD190008DD190008DD19000818
:1000F000DD190008DD190008DD190008DD19000808
:10010000DD190008DD190008DD190008DD190008F7
:10011000DD190008DD1900087918000885180008A5
:10012000DD190008DD190008DD190008DD190008D7
:10013000DD1900080000000000000000DD190008C3
:10014000DD190008DD190008DD190008DD190008B7
:10015000DD190008DD190008DD190008DD190008A7
:10016000DD190008DD190008DD190008DD19000897
:10017000DD190008DD190008DD1900080000000085
:1001800000000000DD190008000000000000000071
:10019000DD1900080000000000000000DD19000863
:1001A000000000000000000000000000DD19000851
:1001B000DD190008DD190008DD190008DD19000847
:0401C000DD1900083D
:1001C40010B5054C237833B9044B13B10448AFF38D
:1001D40000800123237010BDD4090020000000001A
:1001E400381A000808B5034B1BB103490348AFF3A1
:1001F400008008BD00000000D8090020381A00085B
:1002040053B94AB9002908BF00281CBF4FF0FF3179
:100214004FF0FF3000F07AB9ADF1080C6DE904CE6F
:1002240000F006F8DDF804E0DDE9022304B07047CD
:100234002DE9F0478C460D460446089E002B51D10B
:100244008A4217466DD9B2FA82FEBEF1000F0BD076
:10025400CEF1200C01FA0EF520FA0CFC02FA0EF78E
:100264004CEA050C00FA0EF44FEA174A250CBCFBC5
:10027400FAF81FFA87F90AFB18CC45EA0C4508FB83
:1002840009F3AB420AD9ED1908F1FF3280F023815A
:10029400AB4240F22081A8F102083D44ED1AA4B219
:1002A400B5FBFAF00AFB105544EA054400FB09F9D2
:1002B400A14509D9E41900F1FF3380F00A81A14571
:1002C40040F2078102383C44A4EB090440EA0840A8
:1002D4000021002E61D024FA0EF4002334607360F0
:1002E400BDE8F0878B4207D9002E54D0002186E860
:1002F40021000846BDE8F087B3FA83F1002940F0F5
:100304008E80AB4202D3824200F2FA80841A65EBFB
:1003140003050120AC46002E3FD086E81010BDE84E
:10032400F08712B90127B7FBF2F7B7FA87FEBEF1DF
:10033400000F34D1EB1B3A0C1FFA87FC0121B3FBED
:10034400F2F8250C02FB183345EA03450CFB08F3CD
:10035400AB4207D9ED1908F1FF3002D2AB4200F2EB
:10036400D1808046ED1AA3B2B5FBF2F002FB105522
:1003740043EA05440CFB00FCA44507D9E41900F149
:10038400FF3302D2A44500F2B8801846A4EB0C0453
:1003940040EA08409DE731463046BDE8F087CEF19B
:1003A400200405FA0EF307FA0EF720FA04F83A0CC3
:1003B40025FA04F448EA0308B4FBF2F14FEA1845BD
:1003C40002FB11441FFA87FC45EA044501FB0CF3C8
:1003D400AB4200FA0EF409D9ED1901F1FF3080F0B7
:1003E4008A80AB4240F2878002393D44EB1A1FFAFF
:1003F40088F5B3FBF2F002FB103345EA034500FB3A
:100404000CF3AB4207D9ED1900F1FF386FD2AB42C0
:100414006DD902383D44EB1A40EA01418FE7C1F13E
:10042400200722FA07F88B4005FA01F448EA03038F
:1004340020FA07FE4FEA134CFD404EEA040EB5FBCA
:10044400FCF94FEA1E440CFB19551FFA83F844EAE1
:10045400054509FB08F4AC4202FA01F200FA01FA7C
:1004640008D9ED1809F1FF3043D2AC4241D9A9F1C2
:1004740002091D442D1B1FFA8EFEB5FBFCF00CFB7C
:1004840010554EEA054400FB08F8A04507D9E418C6
:1004940000F1FF3529D2A04527D902381C4440EA8F
:1004A4000940A4EB0804A0FB02894C45C6464D460E
:1004B40015D312D056B1BAEB0E0364EB050404FA5B
:1004C40007F7CB401F43CC40376074600021BDE880
:1004D400F0871846F8E69046E0E6C245EAD2B8EB63
:1004E400020E69EB03050138E4E72846D7E74046E6
:1004F40091E78146BEE7014678E702383C4445E788
:10050400084608E7A8F102083D442BE7704700BFFE
:1005140038B50E4A0E4B054618784FF47A73B3FB80
:10052400F0F31068B0FBF3F000F096F8044658B905
:100534000F2D09D8024629464FF0FF3000F04AF843
:10054400044B20461D6038BD012038BDD009002071
:10055400000000200400002008B50B4B1A6842F488
:1005640000721A601A6842F480621A601A6842F4CF
:1005740080721A60032000F01BF80020FFF7C8FF08
:1005840001F07AF8002008BD003C0240034A044B05
:1005940011681B780B441360704700BF080A0020E1
:1005A40000000020014B1868704700BF080A0020B3
:1005B400074AD36823F4E0631B041B0C43F0BF63B6
:1005C400000243F4003300F4E0600343D360704757
:1005D40000ED00E0174B30B5DC68C4F30224C4F12D
:1005E4000703251D042B28BF0423062D4FF0010506
:1005F40005FA03F303F1FF338CBF033C00241940D5
:10060400A14005FA04F4013C2240002842EA010218
:100614004FEA0212ADBF00F1604000F00F00064B3C
:1006240000F56140B5BFD2B2D2B21A5480F80023AB
:1006340030BD00BF00ED00E014ED00E0002808DB51
:100644004209012300F01F0003FA00F0014B43F8B4
:100654002200704700E100E00138B0F1807F0AD247
:10066400064B074A5860F02182F823100020072225
:1006740098601A6070470120704700BF10E000E0E6
:1006840000ED00E010B5044668B1037903F0FF0201
:1006940013B9427101F010F80223237100200123E1
:1006A4002061237110BD012010BD4379012B10B5C9
:1006B4004FF0020318D00371036801221C684271D1
:1006C4008A4022431A6089B919681A684C0707D509
:1006D40002F03802382A03D15A6842F001025A6003
:1006E4000123037100234371184610BD19681A6869
:1006F4004903F5D502F46012B2F5601FF0D15A68CF
:1007040042F00202EBE7704703685A6B910410B59C
:1007140004460ED504220271026942F0010202610C
:100724004FF400525A631A6822F480521A60FFF799
:10073400EAFF23685A6B920011D5042222712269C0
:1007440042F0020222614FF000525A631A6822F00A
:10075400805220461A60BDE8104000F033B810BD46
:100764004379012B30B54FF0020317D004680371AD
:10077400236840F6FE75954023EA05050AC90B4334
:1007840093402B4323602368C02101FA02F223EA39
:10079400020201232260037100234371184630BD15
:1007A40013B5002400680194019041B901990831FE
:1007B4000A440192019A0020136002B010BD01990D
:1007C4001431F5E7704700000368DAB223F47F734D
:1007D40023F003031821103AB2FBF1F20449032A6F
:1007E40088BF0433895C8365C165806D704700BF31
:1007F400501A000870B50446FFF7D4FE0546002CD5
:1008040071D0002384F834302268022384F8353010
:10081400136823F00103136021680B68D8073CD4E4
:100824000B68324D6268A0691D40A3681343E268F7
:1008340013432269134362691343E2690343134375
:10084400226A1343626A042A43EA050301BF266B42
:10085400E56A35432B430B604B69042A23F00703F5
:1008640043EA02030BD1A26AE56A13433DB1F8B926
:10087400012A2DD001D3022A01D1EA012BD44B61E4
:100884002046FFF7A1FFE26D3F23934083600020E1
:100894000123606584F8353070BDFFF783FE401B8B
:1008A4000528B9D920236365032084F8350070BD79
:1008B400B0F5005F13D1032AE1D801A050F822F06B
:1008C400DB0800087F080008DB080008D5080008DA
:1008D400B5F1C07FD3D1402363650120E5E7022A47
:1008E400F9D9032AC8E7012070BD00BF3F8010F08A
:1008F400F7B5002301935A4B856D1F68C36D2E68AD
:1009040008229A40164204460CD001680868400741
:1009140008D5086820F004000860AA60626D42F0FF
:100924000102626501229A40164208D02168496991
:10093400090641BFAA60626D42F0020262650422A8
:100944009A40164208D021680968880741BFAA6006
:10095400626D42F00402626510229A40164210D081
:100964002368196809070CD5AA601A68500335D59D
:100974001B68190301D4236C00E0A36C0BB120465F
:100984009847E16D20228A40164238D023681868BF
:10099400C60634D5AA6094F83520052A1A6825D1EC
:1009A40022F016021A605A6922F080025A61226CFF
:1009B4000AB9A26C1AB11A6822F008021A603F231D
:1009C4008B40AB60002384F83430012384F8353045
:1009D400236D0BB12046984703B0F0BD1A68D205C9
:1009E4005EBF1A6822F008021A60C4E7500328D5D3
:1009F4001B68190332D4636C0BB120469847636DAE
:100A0400002BE9D0636DDA0719D50523226884F831
:100A14003530136823F0010313604FF41653B7FB0A
:100A2400F3F7019B01339F42019302D31368DB0761
:100A3400F7D4002384F83430012384F83530E36C90
:100A4400C7E71A6812F4807208D1196821F01001FE
:100A54001960012384F8342084F83530E36BCBE744
:100A6400D00900202DE9F04F85B00B68DFF8A08194
:100A7400654ADFF8A091019300234FF0010E019C19
:100A84000EFA03FE0EEA0406B64540F0AA804C684E
:100A940024F01007022F16D14FEAD30A00EB8A0A7A
:100AA40003F0070BDAF820504FEA8B0B4FF00F0CD2
:100AB4000CFA0BFC25EA0C0C0D6905FA0BF545EA5A
:100AC4000C05CAF820504FEA430A0325D0F800B0B9
:100AD40005FA0AF5ED4304F0030C0BEA050B0CFAD6
:100AE4000AFC013F4CEA0B0C012FC0F800C011D8DE
:100AF400876807EA050BCF6807FA0AFC4CEA0B077C
:100B04008760476827EA0E0EC4F300179F4047EA40
:100B14000E074760C7683D408F6807FA0AF73D43F0
:100B2400C560E5005DD54FF0000BCDF80CB0D8F8EA
:100B34004470364D47F48047C8F84470D8F8447080
:100B440007F480470397039F23F0030707F18047C7
:100B540007F59C3703F0030CD7F808A04FEA8C0C78
:100B64004FF00F0E0EFA0CFEA8422AEA0E0E3FD0EA
:100B740005F58065A8423DD005F58065A8423BD0C7
:100B840005F58065A84239D005F58065A84237D0BF
:100B9400484537D005F50065A84214BF072506254A
:100BA40005FA0CF545EA0E05BD601568F74314F423
:100BB400803F0CBF3D4035431560556814F4003F39
:100BC4000CBF3D4035435560956814F4801F0CBF3D
:100BD4003D4035439560D568A40254BF3D4035433C
:100BE400D5600133102B7FF448AF05B0BDE8F08F1A
:100BF4005D46D5E70125D3E70225D1E70325CFE7F5
:100C04000425CDE70525CBE7003C01400000024068
:100C140000380240001402400369194214BF012045
:100C2400002070470AB1816170470904FBE74369FA
:100C340031EA030308BF09048161704737B5002313
:100C44000193184B184C1A6C42F080521A641B6CB6
:100C540003F080530193019B144B01221A60FFF7A8
:100C6400A1FC05466368DA030BD5114B0E4C012237
:100C74001A60FFF797FC054663689B030AD50020BA
:100C840006E0FFF78FFC401BB0F57A7FEAD903201A
:100C940003B030BDFFF786FC401BB0F57A7FEBD97B
:100CA400F5E700BF003802400070004040000E42EB
:100CB40044000E422DE9F0410D46044610B90120CE
:100CC400BDE8F081444B1A6802F00F028A4228D32F
:100CD40021688F072DD4C80740D43F4B1A6802F00F
:100CE4000F02954266D3226851076CD4130707D5C7
:100CF4003A4A2169936823F4604343EAC103936049
:100D040000F072F8354B364A9B68C3F30313D35C87
:100D1400D840344B18600020FFF7FAFB0020BDE8F0
:100D2400F081CAB21A701B6803F00F039942C6D14E
:100D3400CEE72A4B11F0040F1EBF9A6842F4E0522A
:100D44009A600E0742BF9A6842F460429A609A68B9
:100D5400A06822F0F00202439A60BCE762681F4B6D
:100D6400012A1DD11B6813F4003FA8D01B4EB368A1
:100D740023F003031343B360FFF714FC41F28838F4
:100D84000746B368626803F00C03B3EB820FA4D088
:100D9400FFF708FCC01B4045F3D90320BDE8F081F0
:100DA400911E01291B6802D813F0007FDDE713F0C0
:100DB400020FDAE7EAB21A701B6803F00F039D42D0
:100DC4007FF47DAF8FE70549E0688B6823F4E05337
:100DD40003438B608AE700BF003C024000380240B6
:100DE400581A0008D0090020204908B58B6803F080
:100DF4000C03082B07D00C2B20D01D4A1D48042BB4
:100E040018BF104608BD4A684B68496813F480034C
:100E140014BF18481648C1F3881118BF002302F004
:100E24003F02A1FB0001FFF7EBF9104B5B68C3F332
:100E3400014301335B00B0FBF3F008BD4A684B6823
:100E4400496813F4800314BF0A480948C1F38811A0
:100E540018BF002302F03F02A1FB0001FFF7D0F905
:100E6400024B5B68C3F30273E5E700BF003802403E
:100E74000024F40000127A0003682DE9F341DF072F
:100E8400044610D423689E0767D423681A0700F128
:100E9400B28023685B0700F1D080A269002A40F089
:100EA400398100201EE0974B9A6802F00C02042A54
:100EB40010D09A6802F00C02082A02D15B685D0225
:100EC40008D4904B9A6802F00C020C2A0DD15A688F
:100ED40050020AD58B4B1B689903D3D56368002B4A
:100EE400D0D1012002B0BDE8F0816268B2F5803F44
:100EF40011D11A6842F480321A60FFF753FB814D16
:100F040006462B689A03BDD4FFF74CFB801B64286C
:100F1400F7D90320E6E77B4DB2F5A02F2B6807D164
:100F240043F480232B602B6843F480332B60E4E785
:100F340023F480332B602B6823F480232B60002A56
:100F4400DBD1FFF72FFB06462B689B039AD5FFF7EF
:100F540029FB801B6428F7D9DBE76A4B9A6812F0F7
:100F64000C0F10D09A6802F00C02082A02D15B68B8
:100F74005F0208D5634A936803F00C030C2B11D16C
:100F840053685E020ED45F4B1A68950702D5E26877
:100F9400012AA6D11A68216922F0F80242EAC102A4
:100FA4001A6072E7E268584BB2B101221A60FFF787
:100FB400F9FA544D06462B68980707D52B68226921
:100FC40023F0F80343EAC2032B605EE7FFF7EAFA73
:100FD400801B0228EFD99CE71A60FFF7E3FA494D1A
:100FE40006462B6899077FF550AFFFF7DBFA801BA5
:100FF4000228F6D98DE76269444B7AB101221A605E
:10100400FFF7D0FA3F4D06466B6F9F073FF541AFA0
:10101400FFF7C8FA801B0228F6D97AE71A60FFF7AF
:10102400C1FA384D06466B6F98077FF532AFFFF76C
:10103400B9FA801B0228F6D96BE7324B1A6C12F00E
:10104400805228D101921A6C42F080521A641B6CAF
:1010540003F080530193019B01262D4D2B68D90584
:101064001BD5A368274D012B27D12B6F43F0010318
:101074002B67FFF797FA234D074641F288382B6F09
:101084009B0739D5002E3FF408AF1E4A136C23F09A
:101094008053136401E70026DFE72B6843F4807371
:1010A4002B60FFF77FFA07462B68DA05D9D4FFF7E0
:1010B40079FAC01B0228F7D92BE7052B04D12B6F33
:1010C40043F004032B67D0E72A6F22F001022A675A
:1010D4002A6F22F004022A67002BCAD1FFF762FAB2
:1010E40041F2883807462B6F9807CBD5FFF75AFA99
:1010F400C01B4045F7D90CE7FFF754FAC01B404525
:10110400BDD906E70038024000004742800E47423E
:1011140000700040234DAB6803F00C03082B3FF430
:10112400E0AE214E0023022A33602DD1FFF73AFAB4
:1011340007462B68990121D4226AE3691343626A42
:1011440043EA8213E26A43EA0263226B43EA0273CC
:10115400A26A144C5208013A43EA02436B60012329
:101164003360FFF71FFA054623689A013FF599AEED
:10117400FFF718FA401B0228F6D9CAE6FFF712FA5D
:10118400C01B0228D5D9C4E6FFF70CFA04462B6825
:101194009B017FF586AEFFF705FA001B0228F6D9FE
:1011A400B7E600BF00380240600047420368DA68CF
:1011B40042F00102DA609A6802F00702062A1EBFB2
:1011C4001A6842F001021A600020704770477047A5
:1011D40070477047704703681A69910710B5044651
:1011E4000ED5DA6892070BD56FF002021A619B697B
:1011F40001229B07027777D0FFF7EAFF00232377CA
:1012040023681A69500710D5DA6851070DD56FF0B5
:1012140004021A619B69022213F4407F227720465C
:1012240068D0FFF7D5FF0023237723681A691207D4
:101234000FD5DA6810070CD56FF008021A61DB6964
:1012440004229907227720465AD0FFF7C1FF0023D2
:10125400237723681A69D20610D5DA68D0060DD52B
:101264006FF010021A61DB69082213F4407F2277C1
:1012740020464BD0FFF7ACFF0023237723681A697D
:10128400D10708D5DA68D20705D56FF001021A61D3
:101294002046FFF79BFF23681A69100608D5DA6811
:1012A400110605D56FF080021A61204600F0D5F8CA
:1012B40023681A69520608D5DA68500605D56FF016
:1012C40040021A612046FFF785FF23681A699106D8
:1012D40022D5DA6892061FD56FF0200220461A61E3
:1012E400BDE8104000F0B8B8FFF771FF2046FFF7E3
:1012F40070FF83E7FFF76BFF2046FFF76AFF92E773
:10130400FFF765FF2046FFF764FFA0E7FFF75FFFE5
:101314002046FFF75EFFAFE710BD0000304A0368C8
:10132400904212D0B0F1804F0FD0A2F57C4290428F
:101334000BD002F58062904207D002F580629042A1
:1013440003D002F57842904219D14A6823F0700321
:101354001343234A904229D0B0F1804F26D0A2F5FE
:101364007C42904222D002F5806290421ED002F567
:10137400806290421AD002F57842904216D0194AFF
:10138400904213D002F5806290420FD002F5806241
:1013940090420BD0A2F59832904207D002F58062B9
:1013A400904203D002F58062904203D1CA6823F4CC
:1013B400407313434A6923F08003134303608B682B
:1013C400C3620B688362064B984203D003F58063C3
:1013D400984201D10B69036301234361704700BF45
:1013E400000001400040014010B50446A0B190F84F
:1013F4003D3003F0FF021BB980F83C2000F0E0F917
:10140400022384F83D302068211DFFF787FF012364
:1014140084F83D30002010BD012010BD90F83C3010
:10142400012B30B54FF0020314D0046880F83D302E
:101434006268A3680D68496822F0700223F0800393
:101444000B432A436260A360012380F83D300023EC
:1014540080F83C30184630BD7047704730B595B0C1
:101464003422002107A800F0DDFA0021142202A88A
:1014740000F0D8FA00251E4B00951A6C42F08052F9
:101484001A641B6C03F080530093009B194B019565
:101494001A6842F440421A601B6803F44043019303
:1014A400019B012307934FF4803308934FF4800387
:1014B4000E93042302240F9307A8B42310930D94CE
:1014C400119412941394FFF7D7FCFFF7B7FB0F2383
:1014D40002934FF4A053059305214FF4805302A8BF
:1014E400039404950693FFF7E5FB15B030BD00BFE8
:1014F400003802400070004000B58BB0FFF72CF8B4
:10150400FFF7ACFF14220024524D534E00210DEB83
:10151400020000F087FA01942B6B504843F0040357
:101524002B632B6B03F004030193019B02942B6B3D
:1015340043F080032B632B6B03F080030293029B25
:1015440003942B6B43F001032B632B6B03F0010318
:101554000393039B04942B6B43F002032B632B6BC9
:1015640003F00203224604934FF48061049BFFF7C7
:1015740059FB4FF40053059305A9394B374806939B
:101584000794FFF76FFA0C230593022306930323B2
:10159400089305A90723334809930794FFF762FAD0
:1015A4004FF48063059305A901232C4806930794FF
:1015B4000894FFF757FA00942B6B43F400132B6342
:1015C4002B6B294D03F4001322462146009310206F
:1015D400009BFEF7FFFF1020FFF730F8224621465C
:1015E4001120FEF7F7FF1120FFF728F81F4B336097
:1015F400304605940694FFF745F83C23224605A996
:10160400304605930694FFF7ABF8102205A930463F
:10161400FFF7A6F8164B059485E818005023EB60F5
:1016240028468023AB610694AC60FFF7DDFE2023DF
:1016340005A9284605930694FFF7F0FE2146304697
:10164400FFF733F810213046FFF72FF82846FFF74D
:10165400ADFDFEE7003802403C12002000080240C5
:101664000000211000000240801A00200074004095
:10167400001400407047000007B50E4B0021009194
:101684005A6C42F480425A645A6C02F480420092CA
:10169400009A01911A6C42F080521A641B6C03F098
:1016A400805301930720019BFEF782FF03B05DF88E
:1016B40004FB00BF0038024070B5054688B0142210
:1016C400002103A800F0AEF92A68374B9A4269D189
:1016D40003F5E233002601961A6C3448344C42F088
:1016E40000521A641A6C02F000520192019A029696
:1016F4001A6B42F001021A631B6B03F0010302939D
:10170400029B3023039303A903230493FFF7AAF94D
:10171400284AE6604FF060634FF0400C84E80C10F8
:101724004FF4806323614FF4006363614FF400530B
:10173400A3614FF48073E36120464FF400332362C6
:101744006662FFF757F808B1FFF794FFAC60A56332
:10175400194C1A4B4FF4806222614FF400626261AB
:101764004FF400524FF060664FF0400EA2614FF408
:10177400807284E84840E26100234FF4003220463E
:10178400E36022626362FFF735F808B1FFF772FF86
:101794000022EC6036201146A563FEF71BFF3620BD
:1017A400FEF74CFF08B070BD00740040000002401A
:1017B4000C0A00208860024050120020A060024001
:1017C40007B50D4B02689A4213D1002203F5093381
:1017D4000192196C41F0200119641B6C03F0200381
:1017E400019337201146019BFEF7F4FE3720FEF7E4
:1017F40025FF03B05DF804FB001400407047FEE7CA
:10180400FEE7FEE7FEE770477047704708B5FEF74E
:10181400BDFE0E4A13680133132B01DC136008BDAF
:1018240000234FF400510A481360FFF7F5F9094B00
:101834001A78012A1A4607D130B907490B680133CF
:10184400022BC8BF03460B60107008BDF4090020CA
:101854000008024008000020F80900200148FFF7B2
:1018640047B800BF0C0A00200148FFF741B800BF89
:10187400501200200148FEF747BF00BF3C12002071
:10188400F8B52648FFF7A7FC4FF480612448FFF71A
:10189400CEF9244A1368002B164602DD013B13607F
:1018A400F8BD2148214C02682368214F00254FF0E0
:1018B400320E0133312B29DCC2F131010EFB0171EF
:1018C400C95C0029F5D0236005B10260013931609B
:1018D4004821184C18484A43C83222604B4300221E
:1018E4001146C833FEF75CFF00211348FEF7DDFE06
:1018F4002368114810210022FEF752FF10210E48E0
:10190400BDE8F840FEF7D1BE0023D5E70132312A05
:101914004FF00105F8DD00221346CDE7801A0020C0
:1019240000080240F0090020040A0020000A0020F8
:1019340009000020FC0900203C1200200F49D1F8C6
:10194400883043F47003C1F888300D4B1A680020C6
:1019540042F001021A6098601A6822F0847222F43C
:1019640080321A60074A5A601A6822F480221A6088
:10197400D8604FF000638B60704700BF00ED00E05B
:101984000038024010300024DFF834D0002103E096
:101994000C4B5B58435004310B480C4B42189A4291
:1019A400F6D30B4A02E0002342F8043B094B9A4267
:1019B400F9D3FFF7C3FF00F011F8FFF79DFD70475F
:1019C40000000220781A000800000020D40900203A
:1019D400D4090020C01A0020FEE7000070B50D4EA7
:1019E4000D4CA41BA4100025A54209D10B4E0C4C90
:1019F40000F020F8A41BA4100025A54205D170BD59
:101A040056F8253098470135EEE756F825309847C3
:101A14000135F2E7701A0008701A0008701A0008FD
:101A2400741A000802440346934200D1704703F835
:101A3400011BF9E7F8B500BFF8BC08BC9E46704727
:0C1A4400F8B500BFF8BC08BC9E46704717
:101A5000000610160006101600000000000000002E
:081A6000010203040607080956
:081A6800CCE7FF7F0100000044
:041A7000E901000880
:041A7400C5010008A0
:101A78000100000010000000010807080808070816
:101A880008080808080808090908090909090909C6
:101A980009090A0A0A0A0A0A0A0A0A0A0A0A0909A2
:101AA80009090909090909090909090807070808A5
:101AB800070808080808080808080908090908059F
:101AC800040404050506090A0A0909090909090996
:101AD8000909090909090909090909090908070872
:101AE8000807070808080807080808080808080574
:101AF800020202020202020303070909090909098D
:101B0800090909090909090909090909090908083F
:101B1800080908070708080808080808080808083E
:101B28000502010102020102020202020709090973
:101B38000909090909090909090808080909090910
:101B4800090808090807080808080708080807080E
:101B5800080604030202010102020302010103084C
:101B680009090808090909090909090909090909DF
:101B780009090908090908070808080808070708DB
:101B88000708070403030302010102040505030112
:101B980001050808080808080808080808090909C4
:101BA80009080508090809090807080808080908AC
:101BB80008060708060302030202020204050506D6
:101BC800040201020708080809090909090909099D
:101BD8000A0A090807080908090908070808080877
:101BE80009080806080804020202010202030505A2
:101BF800050504020001070A0A0A0A0A0A0A09096D
:101C08000909090A09090809090909090807080841
:101C1800080909090807090803010101010201036C
:101C28000505030203020001040A0A0A0A0A0A0A4D
:101C380009090909090A0909080909090908080710
:101C48000808080909090807090702010101010133
:101C58000102040503030303000103090A0A0A0A2F
:101C68000A0A0A0A0A0A0A0A0A09080909090908D5
:101C780007070808080909090808090602010101F7
:101C880002030303040505050503000102080A0A07
:101C98000A0A09090A0A0A0A0A0A090908090908A6
:101CA80009080708080808080909080809050201B9
:101CB80001010204050405050505050200000208E6
:101CC80009090A0A0A0A0A0A090909090909080977
:101CD800090809080708080808080909070809047D
:101CE80002010101020404040404050504010000C2
:101CF80002080909090A090A0A0A09090909090950
:101D08000809090709080708080808080909070948
:101D1800080301010100010304040404050502008D
:101D28000001030809090909090909090909090933
:101D38000909080909080808070808080808090916
:101D48000709080402010100000103050505040153
:101D58000000010105090909090909090909090911
:101D680009090909080909080808070808080808E6
:101D7800090807090804020101000001020304031D
:101D880001010101010308090909090909090909EA
:101D980009090909090908090808080708080808B5
:101DA80008080908080909070301010000010203DE
:101DB80004030201010101020708080909090909C8
:101DC8000909090909090909080908080807080883
:101DD80008080808090708080604030201010001A9
:101DE80002030403020101010101020306080808B5
:101DF8000809090908090909090908080808080754
:101E0800080808080808090809080703010101016A
:101E1800010102040404040303030404050506067F
:101E2800070707080909080808080809080808082A
:101E3800080708080808080909090807060502012B
:101E48000101010304050505050505050506060646
:101E58000606060707070809080808080808080802
:101E680008080807080808080809090807060606F0
:101E78000402030506060606060606060606060703
:101E880007060606060606060808080808080808D9
:101E980008080808080708080808080908070706BE
:101EA80006060607080807070706060606060606C2
:101EB80006070706050606060606080808080808AD
:101EC800080808080808070708080808080908078C
:101ED800070606060608080807070706060607078E
:101EE8000606070707060505060606060708080882
:101EF800080808080807080807080808080808095B
:101F0800080706060605050809080807070606065D
:101F1800070707070707080705050606060607084F
:101F2800080808080808080708080708080808082B
:101F38000909080707060603060909090807070724
:101F4800060506080807070808080706060606061D
:101F580007080808080808080808080807080808FB
:101F680008080909080707060506090909080807EE
:101F780007070604060808070707070707070606EE
:101F880006060708080808080808080707080708D1
:101F98000808080809090807070606090A090808B9
:101FA80008070707060406080707070707050507C0
:101FB80006060606080807080808080808070707A5
:101FC800070808080808090808070706070908078E
:101FD8000607070707060503050707070707060497
:101FE800050606060606080807080807070807077B
:101FF800070708080808080909070807070607095E
:102008000806050607060606050404060707060669
:10201800060606060506060608080708080707084C
:102028000707070708080808070809070807070631
:10203800050707070606060606050505040506063C
:10204800060606060605050606070808080808081D
:1020580008070606060708080808080909070808FF
:102068000706050406060606060505050605050510
:1020780004050505050504040606060708080908F9
:1020880008050607060504070808080708090807D9
:1020980009080706060403040505050405060605E0
:1020A80005050505040404020305060606070707D7
:1020B80008070705030406060407080808070809AF
:1020C80008070908070606050304050505060606A8
:1020D80006050506060606050403040506060607A2
:1020E800080807080808070707080707080808076F
:1020F800080907080909080606050404060606066D
:102108000606060606060606060504020406060670
:102118000608090807090909090909090808080832
:102128000807080907080909080605050405060639
:102138000606060606060606060505050402050641
:102148000606060807070708090808080706060814
:102158000808080708080708090807060605030508
:10216800060606060606060606060605050504030F
:1021780006060606070909090809090909090705DC
:1021880006080808070809080709090807060605D0
:1021980003050606060706060606060606060505DC
:1021A800040507060606080A0A09080909090909AB
:1021B800090706080808080809080709090807069A
:1021C80006060405050607070606060606060606A9
:1021D8000505040606060606090A0A090809090982
:1021E8000909090907080808080809070809090862
:1021F800070606060504050506060606050506067D
:10220800060505040406060606070A0A0A0A090955
:102218000A0909090909090808080908090708092C
:102228000908070606060504050506060606050547
:102238000606060504040507060606080A0A0A0A29
:102248000A090A0A090909090908080809090807F9
:102258000809080807060606050404050506050515
:1022680005050605050504030507060606090A0906
:102278000A0A0A0A0A0A0A090909090808080908C3
:1022880008070909080808070606050304040505E0
:1022980005050505050505050403060606060709DF
:1022A8000909090909090909090909090908080899
:1022B80008080707090908080807060605030304AC
:1022C80004040505050505050504030407060606B7
:1022D800080A0A0A0A0A0A09090909090909090862
:1022E8000807080807070908080808070606060473
:1022F800030404040404050505050404030607068D
:102308000606080A0A0A0A0A0A0A0A0A0A0A0A0930
:10231800090808070808060809080708090707063A
:102328000604030304040404040404040403040763
:1023380007060605070A0A0A0A0A0A0A0A0A0A0A08
:102348000A0A090808080808060809080808080801
:102358000706060503030404040404040404040330
:10236800060707070605060909090A090A0A0A0AE3
:102378000A0A0A0A090808080807060809080808CE
:1023880008070707060602030303040404040404F9
:1023980003030607070705050609090909090909C5
:1023A8000909090A0A0A0A0807080807070908089C
:1023B80007070807080706060403040403030303C2
:1023C80003030303050606060505060909090909A5
:1023D800090909090909090909080708080707086F
:1023E8000808060608070706060606050404050584
:1023F8000505050504040506060606050609090976
:10240800090909090909090909090908070707073D
:102418000608080808070707080706060605050549
:102428000405050505030304050606060605070950
:10243800090909090909090909090909090000001F
:042448000024F40078
:040000050800198D49
:00000001FF
